:100000000C943A1E0C946B1E0C946B1E0C946B1E7D
:100010000C946B1E0C9407D60C946B1E0C948B7274
:100020000C9495D50C946B1E0C946B1E0C946B1E4B
:100030000C9490FE0C946B1E0C94CA6C0C94806C07
:100040000C946B1E0C9414730C946B1E0C946B1E0E
:100050000C946B1E0C946B1E0C946B1E0C945FC264
:100060000C946B1E0D9436070C946B1E0C946B1E37
:100070000C946B1E0C946B1E0C946B1E0C946B1EDC
:100080000C946B1E0C946B1E0C946B1E0C946B1ECC
:100090000D94F2060C946B1E0C946B1E0C946B1E4C
:1000A0000C946B1E0C946B1E0C948A600C946B1E4B
:1000B0000C946B1E0C946C600C946B1E0C946B1E59
:1000C0000C946B1E0C946B1E0C946B1E0C94E35FD3
:1000D0000C946B1E0C946B1E0C946B1E0C946B1E7C
:1000E0000C946B1E084AD73B3BCE016E84BCBFFD0F
:1000F000C12F3D6C74319ABD56833DDA3D00C77FF8
:1001000011BED9E4BB4C3E916BAAAABE0000008090
:100110003F05A84CCDB2D44EB93836A9020C50B91F
:10012000918688083CA6AAAA2ABE000000803F0744
:10013000634236B79BD8A71A39685618AEBAAB5582
:100140008C1D3CB7CC5763BD6DEDFD753EF6177247
:1001500031BF000000803F08000000BE9224491219
:100160003EABAAAA2ABECDCCCC4C3E00000080BE3D
:10017000ABAAAAAA3E00000000BF000000803F001A
:1001800000000000084178D3BB4387D1133D190E0E
:100190003CC3BD4282AD2B3E68EC8276BED98FE176
:1001A000A93E4C80EFFFBE01C4FF7F3F000000006E
:1001B00000000C94B44E0C94D44E0C947FF60C9426
:1001C00005C30C9427ED0C949F4F0D948D760C94E1
:1001D000B1A80D9452760C94621F0D94A13C0C941E
:1001E000F3C20D94C4700C94B7580C9486280C94E8
:1001F00075260D9485760C943F290C941F4F0C9412
:10020000771E0C94DB510C94784F0C949F220C9425
:100210006D330C9455300C943D5E0C941F590D9425
:10022000863C0C94EC2E0C94C0800D945A760C9461
:1002300077250D94D8760C94CF800C941C450C94A3
:10024000A7A80C94B1550C94C35E0C9450F00C9478
:10025000398E0C94934E0D94C63C0C94C3220C948E
:100260004E1F0C9425670C9412260C94C51F0C94F9
:1002700011810C9489240D9454700D94E2700C94A7
:10028000E0560C9439C50C947E930C9479510C94DF
:10029000A41F0C9458200C946D1E0C94805F0C9439
:1002A00097460D946C700C94074E0C9490250D9409
:1002B000C7700C9441540C9420930C941F940C948C
:1002C000C7C20C9436230C94F3290C9436240C9456
:1002D000441F0D94EE700C94545B0C944B470C949B
:1002E00091BD0C94EBF50C9401810C946B300C9443
:1002F000F9210C94FD930C9429810C94206B0C949F
:1003000029340C94A1300D94B33C0C94BE4B0C9446
:10031000924F0C94D1280C949A800C9427320D940F
:10032000CE760D94943C0C94211F0D94D3700C94B4
:10033000CC210C949D400D9497760C9498C20D940A
:10034000AB3C0C94F64E0C94DD8D0C948E4F0C94BB
:100350006DF00D94AF3C0C94C7ED0C94CA220D9433
:10036000CB3C0C94D01F0C945D300C94E88D0D9414
:1003700048700C94E9800C9486250C9495510D944A
:100380008E070C941C290C9464510D94983C0D9488
:10039000BE700C9470340C94D9800C94AF6A0D9498
:1003A0008C3C0C9472250D94EC760C947C250C946A
:1003B000AF8D0C94E25E0C94001F0C94973B0C9450
:1003C000F9800C94C8B90C94EF1E0C94B1510C94A4
:1003D00032340C9431810C941D8D0C944E310C945C
:1003E000593C0C9405580D94E2760C94FA1E0D9429
:1003F000A1760C94852F0C94B2580D94C1700C9476
:10040000B5220C9421810C9420340C94BC220C94C1
:10041000F3340C944A8D0C9448800C9494250C94DD
:10042000A8520C94098E0C94C5800C946D250C94E4
:100430006EED0C94A64F0C9480500C94A08B0D94F0
:10044000903C0C946A200C94E5A60C94ED3D0C9421
:10045000538E0D949B3C0C940BEE0C94D1220D9476
:100460005F760D94C13C0C94F0C00C9408ED0C9494
:1004700056BF0C949EF50C9412540C94A5F00C9459
:1004800009810C94341F0D94A53C0C94F38D0C94AD
:1004900067260C94788D0C948A1F0C9498500C94B9
:1004A000884F0C94CFED0C9425930C94B6570C9474
:1004B000E0930C943CED0C947EC20D947D760C94EC
:1004C00020550D9473760C945E4F0C94E1800C943F
:1004D000E84E0C9418310C9484310C94CA320C946C
:1004E00097540C9490800C94B01F0C94FE8D0C9437
:1004F00024210C9419810D94C4760C94E0EF0C9493
:10050000F6520D94BA760C9493800D94BD3C0C94E5
:10051000EB580C947C1E0C9481250C9494C30D9480
:10052000C73C0C94EB4F0C94985D0D94CF9C0D94AC
:10053000B93C0C94B1C20C947C200C9460400C9497
:10054000761F0C9439360D94B2700C948B250C9454
:100550009F8D0C94BBA80C94CC530C9436350D9401
:10056000DF700C94A3C20C9483460D9423940D94D5
:1005700069760C94BD4F0C94CC510C942A200C94A9
:10058000F1800C94D0C20C94CA800C94BB510C9492
:1005900041570C9425450D94AB760C9436EF6E6163
:1005A0006E00696E66004E414E494E495459494E9F
:1005B00046CDCCCC3D0AD7233C17B7D13877CC2BCE
:1005C000329595E6241FB14F0A000020410000C873
:1005D0004200401C4620BCBE4CCA1B0E5AAEC59DF4
:1005E0007400407A10F35A00A0724E18090010A54A
:1005F000D4E80000E87648170000E40B540200003D
:10060000CA9A3B000000E1F50500008096980000C2
:100610000040420F000000A08601000000102700EB
:10062000000000E803000000006400000000000A71
:1006300000000000000100000000002C76D888DCDB
:10064000674F0823DFC1DFAE59E1B1B796E5E3E4B8
:1006500053C63AE651997696E8E6C28426EB898C31
:100660009B62ED407C6FFCEFBC9C9F40F2BAA56F93
:10067000A5F490055A2AF75C936B6CF9676DC11B62
:10068000FCE0E40D47FEF520E6B500D0ED902E032A
:1006900000943577050080841E080000204E0A0073
:1006A0000000C80C333333330F986E12831141EFBF
:1006B0008D2114893BE65516CFFEE6DB18D1844B1D
:1006C000381BF77C1D901DA4BBE424203284725E8D
:1006D000228100C9F124ECA1E53D276364696E6FB6
:1006E00070737578585B005B50524E3A005B504611
:1006F0004E3A305D005B4449413A005D5B415442F3
:100700003A005D5B4154303A005D5B5354423A001D
:100710005B5354303A00473830004D3435004D3487
:1007200035205A004737360057697A617264207362
:10073000746174653A2025640A00457870657269B1
:100740006D656E74616C004673656E736F722044E4
:100750006574656374696F6E0044697361626C658A
:10076000206661726D206D6F6465004D3834004DF8
:10077000343400473238205700200A200A2000472E
:1007800039390044697361626C65206661726D205D
:100790006D6F64653F004D363030004D20383400B9
:1007A0004D3834004D3234004D323320257300056E
:1007B0002E2E00257500593A202575202D3E202E1D
:1007C0002E2E00257500583A202575202D3E202E0E
:1007D0002E2E004D656173757265642066696C61CB
:1007E0006D656E742073656E736F72206C6F772009
:1007F0006C6576656C3A2025342E3266560A004DBB
:10080000656173757265642066696C616D656E748F
:100810002073656E736F722068696768206C6576F7
:10082000656C3A2025342E3266560A00457874727B
:100830002066616E2073706565643A2025640A0045
:100840005072696E742066616E2073706565643ADB
:100850002025640A005465737420323A0045787488
:10086000722066616E2073706565643A2025640AA3
:10087000005072696E742066616E207370656564E5
:100880003A2025640A005465737420313A004D38CB
:10089000340025632041584953205347313D256496
:1008A0000A00486F74656E6400426564005A00591E
:1008B0000058002D2D2D2D2D2D2D2D2D2D2D2D2D97
:1008C0002D2D2D2D2D2D2D004F4B00000000000053
:1008D000110A04435A5058496E76616C6964536535
:1008E0007269616C4E72006265746100616C70685F
:1008F00061006465760003000B0000005B1350523A
:1009000055534133444657004C616E6775616765C6
:10091000207570646174652E00435A5058003B5333
:10092000006164635F696E6974000A204F726967D1
:10093000696E616C2050727573612069330A2020E2
:10094000205072757361205265736561726368002F
:10095000200A200A200A2000416C6C204461746146
:100960000053657276696365207072657000536824
:10097000697070696E67207072657000537461747D
:10098000697374696373004C616E677561676500B4
:1009900045524153494E4720616C6C20646174613B
:1009A00000466163746F7279205245534554004488
:1009B000495341424C454400454E41424C45440058
:1009C000202873656E736F7220626F61726420728B
:1009D00065766973696F6E3A2553290A0046536537
:1009E0006E736F7220255300494E5434004D4B33C3
:1009F000534D4D553253004E4F4D4B3353002E0146
:100A00004E4F4354554100414C5446414E004D61B8
:100A100079203230203230323200436F6D70696C91
:100A200065643A2000286E6F6E652C2064656661EF
:100A3000756C7420636F6E66696729004D6179205B
:100A4000323020323032322031323A31363A313798
:100A50000020332E31312E302D343935350073746A
:100A600061727400534E2075706461746520666114
:100A7000696C656400534E20757064617465640030
:100A8000435A505800416E206572726F7220776829
:100A9000696C652077726974696E6720746F207461
:100AA000686520534420436172642E002055706CA9
:100AB0006F616420696E2070726F67726573730076
:100AC000205A3A0020593A0020583A0043524153E4
:100AD000485F4445544543544544585900435241A6
:100AE00053485F444554454354454459004352419B
:100AF00053485F444554454354454458004D3239AA
:100B00000047312058352E302045342E30204631D4
:100B10003030302E30004731205A302E32302046CF
:100B2000313030302E30004731205835352E3020CE
:100B30004532352046313430302E3000473120598F
:100B40002D322E302046313030302E3000473120CB
:100B5000583234302E30204532352E302020463267
:100B60003230302E30004739322045302E300047A9
:100B700031205A302E332046313030302E3000476D
:100B800031205835352E302045382E302046323031
:100B900030302E300047312058352E30204533324A
:100BA0002E302046313830302E3000473120583535
:100BB000352E30204533322E302046313037332E1B
:100BC00030004731204634303030004D3230342050
:100BD0005331303030004731205A352046373230DB
:100BE000302E30303000473120452D312E35303019
:100BF00030302046323130302E3030303030004D01
:100C00003833004739300047323100473932204508
:100C1000302E3000473120583530205935352045A9
:100C2000332E3632373733004731205832303020B8
:100C30005935352045302E34393338360047312088
:100C400058323030205937352045332E3632373739
:100C50003300473120583530205937352045302E64
:100C6000343933383600473120583530205939353A
:100C70002045332E36323737330047312058323053
:100C800030205939352045302E3439333836004735
:100C900031205832303020593131352045332E360D
:100CA000323737330047312058353020593131350C
:100CB0002045302E3439333836004731205835300E
:100CC00020593133352045332E36323737330047FC
:100CD00031205832303020593133352045302E36CE
:100CE00036313734004731205832303020593135D1
:100CF000352045322E3632373733004731205831D0
:100D000030302059313535204532004731205837B1
:100D10003520593135352045322E350047312046B2
:100D200031303830004731205A302E3135302046AE
:100D3000373230302E3030300047312058353020B7
:100D4000593135350024F4D43050C38E20C2A2402E
:100D500017828B7011127A910D816CD90AA861E10A
:100D600008C7586607615143061E4B5D05C145A77C
:100D7000041A411104093D9803713931034036DBEF
:100D80000265339102D4305402802E1D02632CEE92
:100D900001752AC501B028A001102781018F2564A3
:100DA000012B244B01E0223401AC211F018D200DC9
:100DB00001801FFC00841EED00971DDF00B81CD2CF
:100DC00000E61BC600201BBC00641AB200B219A8C2
:100DD000000A19A0006A189900D117910040178BDA
:100DE00000B516840031167E00B31579003A1573EC
:100DF00000C7146F0058146A00EE1366008813636E
:100E00000025135E00C7125B006C125700151254C8
:100E100000C111510070114F0021114B00D6104933
:100E2000008D1047004610440002104200C00F40E1
:100E300000800F3E00420F3C00060F3B00CB0E38F7
:100E400000930E37005C0E3500270E3400F30D3290
:100E500000C10D3100900D3000600D2E00320D2DBF
:100E600000050D2C00D90C2B00AE0C2900850C2997
:100E7000005C0C2700350C27000E0C2600E80B2424
:100E800000C40B2400A00B23007D0B23005A0B2170
:100E900000390B2100180B2000F80A1F00D90A1E88
:100EA00000BB0A1E009D0A1D00800A1D00630A1C6B
:100EB00000470A1B002C0A1B00110A1A00F7091A26
:100EC00000DD091900C4091900AB091900920917BE
:100ED000007B091800630917004C09160036091633
:100EE00000200916000A091500F5081500E008148D
:100EF00000CC081400B8081400A4081400900813CB
:100F0000007D0812006B08130058081200460812F2
:100F10000034081100230811001208110001081103
:100F200000F0071000E0071000D0071000C0071005
:100F300000B0070F00A107100091070E0083070FF4
:100F40000074070F0065070E0057070E0049070ED3
:100F5000003B070D002E070E0020070D0013070DA4
:100F60000006070D00F9060C00ED060D00E0060C6A
:100F700000D4060C00C8060C00BC060C00B0060C21
:100F800000A4060B0099060C008D060B0082060BD0
:100F90000077060B006C060B0061060A0057060B73
:100FA000004C060A0042060A0038060A002E060A0D
:100FB0000024060A001A060A001006090007060A9D
:100FC00000FD050900F4050900EB050900E205092B
:100FD00000D9050900D0050900C7050900BE0509AB
:100FE00000B5050800AD050800A50509009C050829
:100FF00000940508008C050800840508007C05089D
:1010000000740508006C050700650508005D05070C
:1010100000560508004E0507004705070040050873
:101020000038050700310507002A050700230507DA
:10103000001C050600160507000F05070008050639
:101040000002050700FB040600F5040700EE040695
:1010500000E8040600E2040700DB040600D50406ED
:1010600000CF040600C9040600C3040600BD040640
:1010700000B7040600B1040500AC040600A604068F
:1010800000A00405009B04060095040500900406DA
:10109000008A04050085040500800406007A040522
:1010A0000075040500700405006B04050066040566
:1010B00000610405005C04050057040500520405A6
:1010C000004D04050048040500430405003E0404E7
:1010D000003A04050035040500300404002C040522
:1010E0000027040400230405001E0404001A04045D
:1010F0000016040500110404000D04040009040591
:10110000000404040000040400FC030400F80304C9
:1011100000F4030400F0030400EC030400E80304FB
:1011200000E4030400E0030400DC030400D803042B
:1011300000D4030400D0030400CC030400C803035C
:1011400000C503030024F404D9201BC40C5C0E98D2
:1011500004C4095F0265077101F405F900FB04B3DB
:101160000048048700C10369005803550003034584
:1011700000BE023A008402310053022A00290225EF
:101180000004022000E4011C00C8011900AF01178F
:101190000098011400840113007101100061011016
:1011A0000051010E0043010D0036010B002B010B15
:1011B0000020010B00150109000C010900030108C2
:1011C00000FB000800F3000800EB000700E4000645
:1011D00000DE000600D8000600D2000600CC0005A4
:1011E00000C7000500C2000500BD000400B90004EE
:1011F00000B5000400B1000400AD000400A9000423
:1012000000A5000300A20003009F0004009B000350
:101210000098000300950002009300030090000373
:10122000008D0002008B000300880002008600028F
:101230000084000300810002007F0002007D0002A4
:10124000007B0002007900020077000100760002B6
:10125000007400020072000100710002006F0002C1
:10126000006D0001006C0002006A000100690002CC
:1012700000670001006600010065000100640002D3
:10128000006200010061000100600001005F0002D7
:10129000005D0001005C0001005B0001005A0001DC
:1012A00000590001005800010057000100560001DC
:1012B00000550001005400010053000000530001DC
:1012C000005200010051000100500001004F0001D8
:1012D000004E0000004E0001004D0001004C0001D6
:1012E000004B0000004B0001004A000100490001D2
:1012F00000480000004800010047000100460000CF
:1013000000460001004500000045000100440001C6
:1013100000430000004300010042000000420001C1
:10132000004100000041000100400001003F0000BA
:10133000003F0001003E0000003E0001003D0000B3
:10134000003D0001003C0000003C0000003C0001AA
:10135000003B0000003B0001003A0000003A0001A1
:10136000003900000039000100380000003800009A
:10137000003800010037000000370001003600008F
:101380000036000000360001003500000035000086
:10139000003500010034000000340000003400017A
:1013A0000033000000330000003300010032000071
:1013B0000032000000320001003100000031000066
:1013C000003100010030000000300000003000015A
:1013D000002F0000002F0000002F0000002F000150
:1013E000002E0000002E0000002E0001002D000045
:1013F000002D0000002D0000002D0001002C000039
:10140000002C0000002C0000002C0001002B00002C
:10141000002B0000002B0000002B0001002A000020
:10142000002A0000002A0000002A00010029000014
:101430000029000000290000002900000029000107
:1014400000280000002800000028000000280000FC
:1014500000280001002700000027000000270000EE
:1014600000270000002700010026000000260000E1
:1014700000260000002600000026000100250000D4
:1014800000250000002500000025000000250000C8
:1014900000250001002400000024000000240000BA
:1014A00000240000002400010023000000230000AD
:1014B00000230000002300000023000000230000A0
:1014C0000023000100220000002200000022000092
:1014D0000022000000220000002200010021000084
:1014E0000021000000210000002100000021000078
:1014F0000021000000210001002000000020000069
:10150000002000000020000000200000002000005B
:101510000020000000200001001F0000001F00004C
:10152000001F0000001F0000001F0000001F00003F
:10153000001F0001001E0000001E0000001E000031
:10154000001E000000504944204175746F74756E90
:10155000652066696E697368656421205075742022
:10156000746865206C617374204B702C204B69206B
:10157000616E64204B6420636F6E7374616E74736C
:101580002066726F6D2061626F766520696E746F80
:1015900020436F6E66696775726174696F6E2E683D
:1015A00000504944204175746F74756E6520666102
:1015B000696C6564212074696D656F7574002040E5
:1015C0003A00543A00423A00504944204175746F41
:1015D00074756E65206661696C6564212054656D63
:1015E000706572617475726520746F6F20686967C9
:1015F0006800204B643A2000204B693A2000204BC1
:10160000703A200020436C61737369632050494431
:1016100020002054753A2000204B753A2000206DA0
:1016200061783A2000206D696E3A200020643A20EB
:101630000020626961733A200045787472756465B0
:10164000722066616E207370656564206973206C1A
:101650006F776572207468616E2065787065637459
:101660006564005072696E742066616E20737065E7
:101670006564206973206C6F776572207468616E91
:10168000206578706563746564004D494E54454D1E
:101690005020414D42004D415854454D50004D4160
:1016A0005854454D5020424544004D415854454DF5
:1016B0005020414D420070012C0190012701B001E2
:1016C0002201C0011D01F0011801100213013002B6
:1016D0000E016002090190020401C002FF00000334
:1016E000FA004003F5008003F000D003EB00200473
:1016F000E6007004E100E004DC004005D700C0050E
:10170000D2004006CD00D006C8008007C3003008D4
:10171000BE00F008B900C009B400B00AAF00B00BB9
:10172000AA00D00CA500000EA000500F9B00C01016
:1017300096005012910000148C00C0158700B0175D
:101740008200B0197D00D01B7800001E730040207D
:101750006E0090226900F024640040275F00902909
:101760005A00E02B5500102E500020304B00103254
:101770004600E033410090353C00103737007038A8
:101780003200A0392D00B03A2800A03B2300603C75
:101790001E00103D1900903D1400103E0F00703ED9
:1017A0000A00C03E0500003F000090137D00B01508
:1017B0007800F0177300601A6E00F01C6900A01F1B
:1017C000640050225F0020255A00E0275500902A2F
:1017D0005000202D4B00A02F4600F0314100103466
:1017E0003C00F0353700A037320020392D00603A38
:1017F0002800703B2300603C1E00203D1900C03DC6
:101800001400403E0F00A03E0A00F03E0500403F9D
:101810000000703FFBFF903FF6FFB03FF1FFC03F7D
:10182000ECFFD03FE7FFE03FE2FFF03FDDFFF03F9E
:10183000D8FF20484F54454E4420544845524D410E
:101840004C2052554E415741590020484541544281
:10185000454420544845524D414C2052554E415725
:10186000415900544845524D414C2052554E415724
:1018700041590042454420544845524D414C205264
:10188000554E415741590020544845524D414C2036
:1018900052554E41574159202850524548454154D0
:1018A00020484F54454E44290020544845524D414C
:1018B0004C2052554E4157415920285052454845D9
:1018C000415420484541544245442900505245481E
:1018D000454154204552524F5200424544205052F7
:1018E0004548454154204552524F52004572723A84
:1018F000200020747269676765726564210048651D
:101900006174657273207377697463686564206FAE
:1019100066662E20003A2000506C65617365207267
:10192000657374617274004D494E54454D50004DBD
:10193000494E54454D502042454400452D6D6F742D
:101940006F722063757272656E74207363616C6967
:101950006E6720656E61626C656400746D63323120
:1019600033305F686F6D655F656E7465722861788E
:1019700065735F6D61736B3D307825303278290A6D
:1019800000746D63323133305F686F6D655F657809
:10199000697420746D63323133305F73675F686FD1
:1019A0006D696E675F617865735F6D61736B3D3004
:1019B00078253032780A00726573756C7420766110
:1019C0006C75653A2025640A0020693D2532642043
:1019D000636E743D2532642076616C3D2532640A65
:1019E00000636C7573746572733A0020693D25322B
:1019F0006420737465703D2532640A00736F7274DD
:101A000065642073616D706C65733A005553415283
:101A100054322072782046756C6C21212100252DCE
:101A20003773003A2000252D31322E313253252DC7
:101A3000642F3600203A2000252D323073004739BC
:101A4000322045302E3000473238004D31303900D9
:101A50004D313930004D3130370054256400473165
:101A6000205A302E342046313030302E300047316D
:101A700020592D332E302046313030302E30004D5D
:101A8000383300473120583130302E302045313244
:101A90002E352046313030302E3000473120583638
:101AA000302E302045392E302046313030302E3027
:101AB00000AB0B950B7F0B6F0B660B4D0B3C0B2795
:101AC0000B160B010B0B0C070C030CFF0BE60BD6D4
:101AD0000BCB0BC20B473120583530205933352002
:101AE00045252D2E336600390D250D1C0D0B0DFBE4
:101AF0000CE50CCF0CBA0CA50C8F0C7A0C660C52B2
:101B00000C3D0C280C140C496E76616C69642050F5
:101B100049442063616C2E20726573756C74732E5A
:101B2000204E6F742073746F72656420746F20454B
:101B30004550524F4D2E004D353030004731205A20
:101B400031352046313530300047393100473120BA
:101B50005835302059313930204530204637303023
:101B60003000473930004D3834004D373032204393
:101B70000047312058313020593138302046343038
:101B80003030004731205A31302046313330302E4A
:101B9000303030004D313430205330004D3130344E
:101BA00020533000473120452D302E30373530302E
:101BB0002046323130302E3030303030004D313030
:101BC0003700252D31362E313653252D34640A2524
:101BD0002D31362E313653252D34640A0025530A13
:101BE00020252D31362E313653252D33640A2025FC
:101BF0002D31362E313653252D33640025530A20DE
:101C0000252D31362E313653252D33640A20252DCE
:101C100031362E313653252D33640A20252D3136A9
:101C20002E313653252D33640025530A20252D31BE
:101C3000362E313653252D33640A20252D31362E8C
:101C4000313653252D33640A20252D372E3753582E
:101C500020252D336420205920252D336400202594
:101C60007325336401200A000A204952203A2020BB
:101C7000202020202025332E316656002050575238
:101C80003A20202020202025342E3166560A20427A
:101C900045443A20202020202025342E316656004D
:101CA00025530A20582025640A2059202564002540
:101CB000752E25752E25752E25750025730020009F
:101CC0005072696E74657220495020416464723AA2
:101CD000002573002000466C6173684169722049D9
:101CE0005020416464723A004D4D5532202020202E
:101CF0002020204E2F410025642E25642E25642DA2
:101D00002564002046573A0046696C2E2073656EA4
:101D1000736F7220762E3A004D6179203230203276
:101D200030323200453344763666756C6C00454976
:101D30004E53795F31306100315F37356D6D5F4DE6
:101D40004B33002D2D2D2D2D2D2D2D2D2D2D2D00F9
:101D500020332E31312E302D34393535004669721D
:101D60006D776172653A004D373032004D37303152
:101D7000004D373032004D37303100464C45582049
:101D80002D20203234302F35300050502020202D8F
:101D900020203235342F3130300048495053202D27
:101DA00020203232302F3130300041425320202D5C
:101DB00020203235352F3130300050564220202D32
:101DC00020203231352F37350050432020202D2060
:101DD000203237352F3131300041534120202D2022
:101DE000203236302F3130350050455420202D2000
:101DF000203233302F383500504C4120202D202008
:101E00003231352F3630006E6F7A7A6C65202D2096
:101E1000203235302F30006661726D2020202D2059
:101E2000203235302F383000252D31322E313253CB
:101E3000252B382E31660045787472756465723AC8
:101E4000006D6D0059005800583A00593A005A3A4E
:101E5000002563252D31332E313353252B352E3379
:101E6000660050494E44412063616C69627261743E
:101E7000696F6E206661696C65642E20436F6E74B5
:101E8000696E75652077697468207072657373690F
:101E90006E6720746865206B6E6F622E0050494E2D
:101EA00044412063616C6962726174696F6E206481
:101EB0006F6E652E20436F6E74696E75652077694D
:101EC0007468207072657373696E6720746865202A
:101ED0006B6E6F622E007B5B4552523A00332E319F
:101EE000312E30005D5B4657523A005D5B54494DE0
:101EF0003A005D5B464E4D3A005D5B46454D3A000B
:101F00005D5B5043443A005B5446553A007B5B505E
:101F1000524E3A39395D007B5B50524E3A355D0086
:101F20007B5B50524E3A305D007B5B50524E3A39EB
:101F30005D007B5B50524E3A385D007B5B524553EF
:101F40003A305D5B46494C3A007B5B5245533A312F
:101F50005D5B46494C3A004D363030006673656E25
:101F6000736F725F757064617465202D204D36301B
:101F7000300049522073656E736F72206E6F74204B
:101F8000726573706F6E64696E67202825642921FD
:101F90000A0020573A0020453A00543A005A206C73
:101FA0006976652061646A757374206F7574206F3B
:101FB000662072616E67652E2053657474696E6762
:101FC00020746F20302E20436C69636B20746F2067
:101FD000636F6E74696E75652E005A206C69766544
:101FE0002061646A757374206F7574206F66207247
:101FF000616E67652E2053657474696E6720746F17
:1020000020300020423A0020453A00543A00494E20
:102010005434007265636F7665725F6D61636869E1
:102020006E655F73746174655F61667465725F701D
:102030006F7765725F70616E69632C20696E697479
:1020400069616C200050525553412075766C6F00C9
:102050004734205330004D32362053256C75004DE7
:102060003130362053004D32323020532564004742
:102070003120462564004D38320047393220450072
:102080004731204525302E33662046323730300028
:102090004D32303420502566205225662054256666
:1020A000004731205A2566005052555341204D4279
:1020B0004C2056310047312058256620592566208E
:1020C000463330303000506F736974696F6E207220
:1020D0006561642066726F6D20656570726F6D3A20
:1020E000004D3233202573002E67636F002C20666D
:1020F0006565646D756C7469706C793A00466565E8
:1021000064726174653A0047312045252D302E33C5
:102110006620463237303000473120453520463181
:102120003230004D3833004D3130392053256400B2
:102130004D31393020532564004D31303420532542
:10214000640047323820582059004731205A252E44
:1021500033662046383030004731205A252D302E46
:1021600033662046252D302E336600473120452525
:102170002D302E3366204632373030004D38330054
:1021800000002110422063308440A550C660E770F3
:10219000088129914AA16BB18CC1ADD1CEE1EFF19B
:1021A0003112100273325222B5529442F772D66243
:1021B000399318837BB35AA3BDD39CC3FFF3DEE3EB
:1021C0006224433420040114E664C774A444855493
:1021D0006AA54BB528850995EEE5CFF5ACC58DD53B
:1021E0005336722611163006D776F6669556B446E3
:1021F0005BB77AA719973887DFF7FEE79DD7BCC78B
:10220000C448E5588668A778400861180228233832
:10221000CCC9EDD98EE9AFF9488969990AA92BB9DA
:10222000F55AD44AB77A966A711A500A333A122A82
:10223000FDDBDCCBBFFB9EEB799B588B3BBB1AAB2A
:10224000A66C877CE44CC55C222C033C600C411CD2
:10225000AEED8FFDECCDCDDD2AAD0BBD688D499D7A
:10226000977EB66ED55EF44E133E322E511E700E22
:102270009FFFBEEFDDDFFCCF1BBF3AAF599F788FCA
:102280008891A981CAB1EBA10CD12DC14EF16FE1AA
:102290008010A100C230E3200450254046706760E2
:1022A000B9839893FBA3DAB33DC31CD37FE35EF3FA
:1022B000B1029012F322D232354214527762567232
:1022C000EAB5CBA5A89589856EF54FE52CD50DC54A
:1022D000E234C324A0148104667447642454054482
:1022E000DBA7FAB79987B8975FE77EF71DC73CD79A
:1022F000D326F2369106B0165766767615463456D2
:102300004CD96DC90EF92FE9C899E9898AB9ABA9E9
:102310004458654806782768C018E1088238A32821
:102320007DCB5CDB3FEB1EFBF98BD89BBBAB9ABB39
:10233000754A545A376A167AF10AD01AB32A923A71
:102340002EFD0FED6CDD4DCDAABD8BADE89DC98D89
:10235000267C076C645C454CA23C832CE01CC10CC1
:102360001FEF3EFF5DCF7CDF9BAFBABFD98FF89FD9
:10237000176E367E554E745E932EB23ED10EF01E11
:102380007C3C3E3F2F2A225C00626F6F745F61705D
:10239000705F6D61676963203D30782530386C78F7
:1023A0000A00626F6F745F6170705F666C61677363
:1023B000203D3078253032780A00626F6F745F728A
:1023C0006573657276656420203D307825303278FB
:1023D0000A00626F6F745F636F70795F73697A650B
:1023E000203D3078253034780A00626F6F745F6466
:1023F00073745F6164647220203D30782530386CDE
:10240000780A00626F6F745F7372635F61646472F5
:1024100020203D30782530386C780A002220666113
:10242000696C65643A204275666665722066756CF3
:102430006C21002200256920686F75727320256960
:10244000206D696E757465730052582074696D65EE
:102450006F7574004D3131300046756C6C205258E8
:102460002042756666657200437573746F6D005324
:102470006174696E200054657874757200536D6FD5
:102480006F74680047312059252D2E32662045256E
:102490002D2E3366004731205825642059252D2ED6
:1024A00032662045252D2E3366006673656E736F88
:1024B000725F636865636B706F696E745F70726979
:1024C0006E74006673656E736F722076302E3420E2
:1024D000696E206661756C742072616E6765203468
:1024E0002E362D3556202D20756E636F6E6E65630A
:1024F000746564006673656E736F7220696E206622
:102500006F7262696464656E2072616E6765203106
:102510002E352D3356202D20636865636B2073653F
:102520006E736F7200312E3000312E3500554E4BD8
:102530004E4F574E004C413130433A204C696E6546
:10254000617220416476616E6365206D6F64653AE7
:1025500020004C413130433A2041646A7573746500
:102560006420452D4A65726B3A2000000E13151148
:102570000E00000004120912040000001C1F1111BB
:102580001F00000006191803130C00040E1F041C82
:10259000000000040A0A0A0A11110E001F15111585
:1025A0001F0000000103161C0800000000110A04AF
:1025B000110A040C12120C000000002563252D31B5
:1025C000382E3138532563005B25735D2563005B2E
:1025D00025535D2563002563252D31382E31385371
:1025E00000252E31305320002563252D31382E3122
:1025F00038732563002563252D2E313653200025A1
:1026000063252E3135533A257325336400252D3249
:10261000302E3230530A00457872656D6520737034
:10262000616E206F6620746865205A2076616C7533
:102630006573210025642F39006F6B0A0073746184
:1026400072740A004D4D5532206669726D77617261
:10265000652076657273696F6E20696E76616C694C
:10266000642E205265717569726564207665727397
:10267000696F6E3A206275696C64206E756D626573
:1026800072202564206F72206869676865722E0069
:102690004D4D55203D3E20276F6B270A004D4D556F
:1026A000203D3E20276F6B270A002564004D4D55C5
:1026B000203D3E20276F6B272C20726573756D655A
:1026C000207072696E740A004D4D552072657472E7
:1026D0007920617474656D7074206E722E2025648B
:1026E0000A004D4D55203D3E20276F6B270A0041C3
:1026F0000A004D4D55203C3D202741270A004D360C
:102700003030204155544F004D3630300025686838
:102710007500410A004D4D55203C3D202741270AB8
:102720000050300A004D25640A004D4D55203C3DB7
:1027300020274D2564270A0057300A004D4D5520AB
:102740003C3D20275730270A0053330A004D4D5592
:10275000203C3D20275333270A0052300A004D4DBC
:1027600055203C3D20275230270A004B25640A00A3
:102770004D4D55203C3D20274B2564270A0045251B
:10278000640A004D4D55203C3D2027452564270A0D
:102790000055300A004D4D55203C3D20275530272F
:1027A0000A0043300A004D4D55203C3D2027433060
:1027B000270A004C25640A004D4D55203C3D20273A
:1027C0004C2564270A005425640A004D4D55203CD1
:1027D0003D2027542564270A004D4D55202D2045C6
:1027E0004E41424C454400256868750050300A004F
:1027F0004D310A004D4D55203C3D20274D312700DD
:1028000050300A004D4D552076657273696F6E2009
:1028100076616C6964004D4D55203D3E202725644E
:102820006F6B270A0025750053320A004D4D552065
:102830003C3D2027533227004D4D55203D3E20275B
:1028400025646F6B270A002575004D4D55206E6F6E
:102850007420726573706F6E64696E67202D2044FA
:10286000495341424C45440053310A004D4D5520D7
:102870003C3D2027533127004D4D55203D3E20271C
:10288000737461727427006E6F206D6F76650054EB
:102890002D636F646500756E6C6F6164006C6F61B1
:1028A00064006D6D755F6765745F726573706F6EE0
:1028B0007365202D20626567696E206D6F76653ABD
:1028C00020006D6D755F6765745F726573706F6E04
:1028D000736528292072657475726E696E673A2077
:1028E00025640A00556E6C6F6164696E67206669C5
:1028F0006E6973686564203200556E6C6F61642088
:102900003200556E6C6F6164696E672066696E692E
:1029100073686564203100556E6C6F61642031000E
:102920004D4D552073746172747320726573706FAE
:102930006E64696E67004D4D55206E6F7420726530
:1029400073706F6E64696E670046696C616D656E69
:1029500074206F7574206F662072616E6765202524
:1029600064200A000000803F555585410000803FEB
:102970000000C84100000040555505420000C03F1E
:10298000000048420000204055558542000070C1BB
:10299000ABAAA642000060C10000A0410000C0C078
:1029A0000000204100002041ABAA3A41000020C1B4
:1029B0005555D540000048C2555505424D37303178
:1029C000204536004D373031204535004D37303108
:1029D000204534004D373031204533004D373031FC
:1029E000204532004D373031204531004D373031F0
:1029F0002045300046696C616D656E74206E7220F2
:102A00006F7574206F662072616E676521002066A5
:102A100061696C65642E0020737563636565646528
:102A2000642E004D4D552063616E5F6C6F61643A9A
:102A3000004164646974696F6E616C206C6F6164DD
:102A400020617474656D7074206E722E2025640A86
:102A500000773235783230636C5F63666D0A0077D9
:102A60003235783230636C5F656E7465720A00735C
:102A7000746172740A00FFFFFFFF53657474696E1E
:102A800067732053746F7265640053746F7265646A
:102A90002073657474696E677320726574726965FA
:102AA0007665640048617264636F646564204465A0
:102AB0006661756C742053657474696E6773204C1D
:102AC0006F6164656400563200000000C842000077
:102AD000C8420000C84300008C4300004843000087
:102AE0004843000040410000F042E8030000E803D2
:102AF0000000C80000008813000000409C44004013
:102B00009C440000000000000000204E0000000077
:102B1000204100002041CDCCCC3E00009040000080
:102B200000000000000000000000CDCCCC3E3D0ABB
:102B30008141FF08433EB099AB438F42FC42E65AC5
:102B4000343F4C62B04500000000004040000034BB
:102B500042000000000000000000000041000000F2
:102B6000E03F0000C8420000C842000040410000B1
:102B7000F042C0030000C0030000C800000088133A
:102B800000001010102000409C44454550524F4D0D
:102B9000204572726F7200627573793A20706175A8
:102BA00073656420666F7220696E7075740062755B
:102BB00073793A2070617573656420666F72207551
:102BC00073657200627573793A2070726F63657312
:102BD00073696E670000007F430080544300005219
:102BE0004300000000000080C09A99193E000000D8
:102BF00000000080C09A99193E0000A0400000A08B
:102C0000400000004025336420737465703D253218
:102C100064206D73636E743D2534640A0000007F88
:102C200043008058439AD95143FFFFFF20413A00A7
:102C300020503A002042403A0020403A00202F0025
:102C4000205400202F0020423A00202F00543A0048
:102C5000206D6963726F6E73004578636573736985
:102C6000766520626564206C6576656C696E6720A8
:102C7000636F7272656374696F6E3A2000426564B7
:102C8000206C6576656C696E67206661696C656449
:102C90002E2053656E736F72207472696767657258
:102CA000656420746F6F20686967682E00426564F0
:102CB000206C6576656C696E67206661696C656419
:102CC0002E2053656E736F7220646973636F6E6E2E
:102CD0006563746564206F72206361626C65206255
:102CE000726F6B656E2E0020453A00205A3A002024
:102CF000593A0020453A00205A3A0020593A0058E3
:102D00003A0067636F64655F4D37303120626567F5
:102D1000696E0A00416476616E6365204B3D004B2D
:102D2000206F7574206F6620616C6C6F776564200E
:102D300072616E67652100200A200A20004D323240
:102D4000302053256900255346696C616D656E74AA
:102D50002073657474696E67733A204469736162A5
:102D60006C65640A00255346696C616D656E74205C
:102D700073657474696E67733A0A25532020204D79
:102D80003230302044252E32660A002553526574B5
:102D9000726163743A20533D4C656E6774682028F5
:102DA0006D6D2920463A537065656420286D6D2F3E
:102DB0006D29205A3A205A4C69667420286D6D2975
:102DC0000A25532020204D3230372053252E3266DD
:102DD0002046252E3266205A252E32660A25535269
:102DE00065636F7665723A20533D45787472612051
:102DF0006C656E67746820286D6D2920463A5370A3
:102E000065656420286D6D2F6D290A2553202020CB
:102E10004D3230382053252E32662046252E32661C
:102E20000A25534175746F2D526574726163743A4B
:102E300020533D3020746F2064697361626C652C8F
:102E4000203120746F20696E746572707265742011
:102E5000657874727564652D6F6E6C79206D6F7610
:102E60006573206173207265747261637473206F7F
:102E700072207265636F7665726965730A255320E7
:102E800020204D323039205325640A002553504903
:102E90004420686561746265642073657474696E4A
:102EA00067733A0A25532020204D333034205025B3
:102EB0002E32662049252E32662044252E32660A9F
:102EC0000025535049442073657474696E67733AE2
:102ED0000A25532020204D3330312050252E3266D4
:102EE0002049252E32662044252E32660A002553BD
:102EF00053746570732070657220756E69743A0A38
:102F0000255320204D39322058252E326620592550
:102F10002E3266205A252E32662045252E32660A2C
:102F200025535553746570207265736F6C757469A1
:102F30006F6E3A200A2553204D33353020582564D2
:102F400020592564205A2564204525640A25534DBF
:102F50006178696D756D206665656472617465730D
:102F6000202D206E6F726D616C20286D6D2F73297E
:102F70003A0A255320204D3230332058252E326610
:102F80002059252E3266205A252E32662045252EC0
:102F900032660A25534D6178696D756D20666565E9
:102FA000647261746573202D20737465616C74683C
:102FB00020286D6D2F73293A0A255320204D323079
:102FC000332058252E32662059252E3266205A2568
:102FD0002E32662045252E32660A25534D617869CA
:102FE0006D756D20616363656C65726174696F6E88
:102FF000202D206E6F726D616C20286D6D2F7332E5
:10300000293A0A255320204D3230312058256C753D
:103010002059256C75205A256C752045256C750A3C
:1030200025534D6178696D756D20616363656C65CD
:10303000726174696F6E202D20737465616C7468A1
:1030400020286D6D2F7332293A0A255320204D32E6
:1030500030312058256C752059256C75205A256C07
:10306000752045256C750A2553416363656C65724F
:103070006174696F6E3A20503D7072696E742C20D5
:10308000523D726574726163742C20543D74726198
:1030900076656C0A255320204D3230342050252E81
:1030A00032662052252E32662054252E32660A259D
:1030B00053416476616E6365642076617269616212
:1030C0006C65733A20533D4D696E20666565647288
:1030D00061746520286D6D2F73292C20543D4D6936
:1030E0006E2074726176656C2066656564726174C9
:1030F0006520286D6D2F73292C20423D6D696E6906
:103100006D756D207365676D656E742074696D658E
:1031100020286D73292C20583D6D6178696D756D7F
:10312000205859206A65726B20286D6D2F73292CE9
:1031300020205A3D6D6178696D756D205A206A6551
:10314000726B20286D6D2F73292C2020453D6D61F9
:1031500078696D756D2045206A65726B20286D6DEC
:103160002F73290A255320204D3230352053252E28
:1031700032662054252E32662042252E3266205893
:10318000252E32662059252E3266205A252E32668B
:103190002045252E32660A2553486F6D65206F66DF
:1031A0006673657420286D6D293A0A255320204DD9
:1031B0003230362058252E32662059252E32662090
:1031C0005A252E32660A004625642025640A004DE1
:1031D0004D55203C3D2027462564202564270A00C4
:1031E0004361703A25533A25630A00455854454EC9
:1031F0004445445F4D3230004155544F5245504F85
:1032000052545F504F534954494F4E004155544F0B
:103210005245504F52545F46414E53004155544F12
:103220005245504F52545F54454D5000005A3000A3
:103230005A3100593000593100583000583100459A
:103240006E642073746F70732064696167004465F5
:103250006C6574696F6E206661696C65642C2046CC
:10326000696C653A200046696C652064656C65741C
:1032700065643A004E6F74205344207072696E7416
:10328000696E67005072696E7420736176656400C0
:103290005344207072696E742070617573656400A8
:1032A0004F4B004241440052414D426F2046414E37
:1032B000200043524153485F43414E43454C004335
:1032C000524153485F5245434F5645520043524185
:1032D00053485F5245434F56455200222832290039
:1032E0004475706C696361746520542D636F646507
:1032F0002069676E6F7265642E00496E76616C6935
:1033000064205420636F64652E002C204D393037C3
:1033100020452069676E6F726564006E6F2076616C
:103320006C696420636F6D6D616E64002C20002CED
:1033300020002C20006E2F61002C20002C20002C5F
:1033400020006E2F6100503A005761697420666F4B
:10335000722050494E444120746172676574207434
:10336000656D70657261747572653A004155544FB0
:10337000004C414E472053454C20464F5243454454
:1033800000256925250A00256925250A00222831FE
:10339000290030303030303030302D303030302D6A
:1033A000303030302D303030302D30303030303023
:1033B0003030303030300020555549443A0031002B
:1033C0002045585452554445525F434F554E543A48
:1033D000005072757361206933204D4B33530020C8
:1033E0004D414348494E455F545950453A00312EAE
:1033F0003000206261736564206F6E204D61726CD5
:10340000696E204649524D574152455F55524C3ADC
:1034100068747470733A2F2F6769746875622E63CD
:103420006F6D2F707275736133642F507275736195
:103430002D4669726D776172652050524F544F432B
:103440004F4C5F56455253494F4E3A004649524DF4
:10345000574152455F4E414D453A50727573612D4B
:103460004669726D7761726520004D3131332053AA
:103470000020423A0020453A00543A006F6B200089
:103480006E2F61003F546F736869626120466C6102
:103490007368416972204765744950206661696CA0
:1034A00065640A002569206D696E2C2025692073EA
:1034B000656300496E76616C6964204D20636F64BA
:1034C000653A2025730A004D6573682062656420A3
:1034D0006C6576656C696E67206E6F7420616374CD
:1034E0006976652E002020000A4D6561737572654E
:1034F0006420706F696E74733A000A5A20736561B4
:10350000726368206865696768743A20004E756D5B
:1035100020582C593A200050494E44412070726F77
:1035200062652063616C6962726174696F6E207399
:103530007461727400473238205730004E6F20504B
:10354000494E444120746865726D6973746F7200EE
:10355000736574006E6F7A7A6C65004D424C00465C
:10356000520042656174004C7A004C616E670052F3
:1035700065760046697200534E20696E76616C690B
:103580006400534E004D3238006676005245534574
:1035900054004D4D55524553004D32340075766CF4
:1035A0006F007468780046414E0046414E50494EC7
:1035B0005453540050524E0050696E67005052559B
:1035C0005341005345545F43484F505F00534554A7
:1035D0005F535445505F005345545F574156455F14
:1035E00000544D435F0043524153485F43414E43B3
:1035F000454C0043524153485F5245434F56455254
:103600000043524153485F444554454354454400A8
:1036100043524153485F004D3120004D30004D3141
:103620003137001000C90210012C01400122017045
:10363000011801B0010E01F00104015002FA00B0BE
:1036400002F0003003E600D003DC009004D20070EA
:1036500005C800A006BE000008B400B009AA00D04A
:103660000BA000600E960060118C000015820020F7
:10367000197800C01D6E00A0226400B0275A009087
:103680002C500000314600E0343C001038320090ED
:103690003A2800603C1E00A03D1400803E0A002035
:1036A0003F000000002100240027002A002D0030E8
:1036B00000330001010000040107010A010000229B
:1036C00000250028002B002E0031003400020100EC
:1036D00000050108010B010000200023002600293D
:1036E000002C002F00320000010000030106010938
:1036F0000105050505070508080808020202020A77
:103700000A08080404040401010101010101010384
:1037100003030303030303040707070C0C0C0C0C3F
:103720000C0C0C0202020206060606060606060B32
:103730000B0B0B0B0B0B0B07070A0A0A0A0A0A05ED
:1037400005050404040808010210202008081020C0
:10375000401020408002010201080402010102041D
:1037600008102040808040201008040201800402DC
:103770000180402010080402010804020101020433
:103780000810204080010204081020408010080426
:103790000880102040044080102040048000000A6F
:1037A0000B02090C0D0E08070304010000000000C5
:1037B0000000000000000000000000000000000009
:1037C00000000000000000000012111000000000C6
:1037D00000000000000000000000000000000000E9
:1037E00000000000000000000000000000000000D9
:1037F000000000252D392E39535B002563252D311E
:10380000382E31387325630057726974696E6720EA
:10381000746F2066696C653A200046696C652061AA
:103820006C7265616479206F70656E65640078798B
:103830007A63616C5F6D656173737572655F656EE8
:103840007465720A0078797A63616C5F737069726B
:10385000616C382063783D25642063793D256420C0
:103860007A303D256420647A3D2564207261646964
:1038700075733D25642061643D25640A0078797A7A
:1038800063616C5F7365617263685A206E6F207349
:1038900069676E616C0A20783D256C6420793D254E
:1038A0006C64207A3D256C640A00204F4E2D5349EC
:1038B000474E414C20617420783D256420793D2598
:1038C00064207A3D25642061643D25640A0078798E
:1038D0007A63616C5F7365617263685A20783D2515
:1038E0006C6420793D256C64207A3D256C640A0067
:1038F00025640A005363616E20636F756E74646F94
:10390000776E3A20000A002530327800205B256669
:103910002025665D206D6D207061747465726E2067
:1039200063656E7465720A00205B25662025665DFE
:103930005B25665D206D6D20646976657267656ED6
:1039400063650A000000F000F801FC03FE07FE07B3
:10395000FE07FE07FC03F801F00000000000000075
:10396000F000F801FC03FC03FC03FC03F801F00089
:103970000000000078797A63616C5F6D6561737334
:103980007572655F6C656176650A00203C200057A2
:1039900041524E494E473A2046726F6E7420706F06
:1039A000696E74206E6F7420726561636861626C09
:1039B000652E205920636F6F7264696E6174653A79
:1039C0000000000040410000C04000005C430000D7
:1039D000C04000005C43000046430000404100003E
:1039E000464325642F3400497465726174696F6EB3
:1039F0003A200043616C6962726174696F6E20667F
:103A000061696C65642120436865636B2074686537
:103A1000206178657320616E642072756E20616725
:103A200061696E2E0078797A63616C5F7370697278
:103A3000616C322063783D25642063793D256420E4
:103A40007A303D256420647A3D2564207261646982
:103A500075733D25642061643D25640A00506174DE
:103A60007465726E2063656E746572205B256620D6
:103A700025665D2C206D6174636820256625250A06
:103A800000205B25662C2025665D5B25665D206633
:103A9000696E616C20636972636C650A00746D63A2
:103AA000323133305F676F746F5F737465702025D8
:103AB00064202564202564202564200A004E6F20A0
:103AC00030784646207265636569766564005365A3
:103AD0006E64696E67203078464600202225732286
:103AE000002025236C78004449525F455849540012
:103AF0004449525F454E5445523A202573202225B1
:103B000073220A0046696C652073656C6563746591
:103B100064002053697A653A200046696C65206F1D
:103B200070656E65643A20004E6F7720667265732B
:103B3000682066696C653A20004E6F7720646F6973
:103B40006E672066696C653A20002220706F7300F2
:103B50002220706172656E743A2200535542524FB2
:103B60005554494E452043414C4C20746172676561
:103B7000743A2200747279696E6720746F206361F1
:103B80006C6C207375622D67636F64652066696C69
:103B90006573207769746820746F6F206D616E792A
:103BA000206C6576656C732E0046696C616D656E80
:103BB000742073656E736F7220626F61726420632C
:103BC00068616E67652064657465637465643A2036
:103BD0007265766973696F6E25530A004D32340041
:103BE0004D3233202573006175746F25692E67008F
:103BF00022206661696C65643A204275666665726A
:103C00002066756C6C2100456E717565696E672064
:103C1000746F207468652066726F6E743A2022009B
:103C20002200456E717565696E6720746F20746837
:103C3000652066726F6E743A2022006563686F3A81
:103C4000004572726F723A004D494E54454D5020F6
:103C5000424544206669786564004D494E54454D9F
:103C60005020484F54454E442066697865640000F2
:103C70009502B50211241FBECFEFD1E2DEBFCDBF4A
:103C800000E00CBF14E0A0E0B2E0E7E5FEEC03E0EA
:103C90000BBF02C007900D92A637B107D9F729E1F3
:103CA000A6E7B4E001C01D92A13CB207E1F71EE116
:103CB000C9E3DEE100E006C021970109802FFE0183
:103CC0000F943AB5C833D10780E00807A9F70F94DD
:103CD00037780D9445B60C9488FE83B18295817037
:103CE000089583B18295817091E08927089580912C
:103CF0003106909132060895CF92DF92EF92FF92B3
:103D000020913306B0E0A0E0C090AC0FD090AD0F92
:103D1000E090AE0FF090AF0F20FF42C0C81AD90A52
:103D2000EA0AFB0AC092AC0FD092AD0FE092AE0F40
:103D3000F092AF0FCB01B0E0A0E0C090B00FD090F8
:103D4000B10FE090B20FF090B30F21FF36C0C81A48
:103D5000D90AEA0AFB0AC092B00FD092B10FE092E2
:103D6000B20FF092B30F70E060E08091B40F9091C9
:103D7000B50FA091B60FB091B70F22FF2BC0841BD7
:103D8000950BA60BB70B8093B40F9093B50FA09330
:103D9000B60FB093B70FFF90EF90DF90CF900895DC
:103DA0008C0D9D1DAE1DBF1D8093AC0F9093AD0F6C
:103DB000A093AE0FB093AF0FBDCF8C0D9D1DAE1D68
:103DC000BF1D8093B00F9093B10FA093B20FB0932B
:103DD000B30FC9CF840F951FA61FB71FD4CF8091F3
:103DE0003202813019F410923202089581E08093FA
:103DF0003202089582E492E90F9493070D94BE086D
:103E00008091D1059091D2058130910591F028F0F3
:103E1000029791F483E090E002C081E090E09093FB
:103E2000D2058093D1056091D10587ED9EE00D9478
:103E300097AF82E090E0F3CF1092D2051092D105B7
:103E4000F2CFCF93DF93C5E1DDE0FE01E254F44011
:103E50006491CE010F9497AF2196C9328DE0D807B7
:103E6000A1F7DF91CF9108958091DC05811109C000
:103E700081E08093DC056091DC0587E49DE00D9492
:103E800097AF1092DC05F7CFE7E0F9E1608181E0C0
:103E9000682760838BEB9FE00D9497AF809130068D
:103EA000882321F0813059F482E001C081E08093C1
:103EB00030066091300688EA9DE00D9497AF10922D
:103EC0003006F7CF8091D904882321F0813059F44E
:103ED00082E001C081E08093D9046091D90484EA32
:103EE0009DE00D9497AF1092D904F7CF8091D8043C
:103EF000882321F0813059F482E001C081E0809371
:103F0000D8046091D80483EA9DE00D9497AF109295
:103F1000D804F7CF6091020581E06827609302051D
:103F200086ED9EE00D9497AF84E09DE00F9473AF13
:103F30008A3239F48AE29DE00F9473AF91E08130C8
:103F400009F090E0892F08958BEA9DE00F9473AFFC
:103F500063E0833009F467E08BEA9DE00D9497AF4E
:103F60008AEA9DE00F9473AF833059F0853059F0A1
:103F700083E080932502609125028AEA9DE00D94FA
:103F800097AF85E0F6CF81E0F4CF8CEA9DE00F9407
:103F900073AF61E0811160E08CEA9DE00D9497AF12
:103FA0008FEA9FE00F9473AF61E0811160E08FEAC8
:103FB0009FE00D9497AFCF93C82F88E091E70E94C0
:103FC00032BF0E94C5A88091E305882369F08FEA7B
:103FD00090E70E9432BF0E94C5A88DED9FE60E9427
:103FE00032BFCF910C94C5A8CC23B9F38DE790E7ED
:103FF000F0CFCF93DF93D0E0C0E0FE01E250F74F67
:104000006491CE010F9497AF2196CA30D105A9F7DC
:10401000E6EFF8E0659174918AE090E00F94B5AF17
:10402000E8EFF8E0659174918CE090E00F94B5AF03
:10403000EAEFF8E0659174918EE090E00F94B5AFEF
:10404000ECEFF8E06591749180E190E0DF91CF9121
:104050000D94B5AFCF93DF93809115028C33E1F0CF
:10406000803501F1883291F088E280931502C0E931
:10407000D1E06091150287EA9DE00F9497AFBE01F1
:1040800085EA9DE0DF91CF910D94B5AF8CE38093ED
:104090001502C8E5D2E0EDCF80E580931502C0E2BD
:1040A000D3E0E7CF89E180931502CAEFD0E0E1CFFA
:1040B000CF930E94941FC1E0C8276FEF09F06AE216
:1040C00084E09DE00F9497AF8C2F880F8270CF9182
:1040D0000C94F6648091B210813051F41092B210B9
:1040E0006091B21088E09FE00F9497AF0D942E532B
:1040F00081E08093B210F4CF0F931F93CF93DF939F
:1041000081E08093A4048091060180FD0AC084E8C8
:104110009AE70E9432BFDF91CF911F910F910C94CB
:10412000C5A889E79BE70E9432BF0E94C5A8C0913D
:10413000A204D091A304BE0190E080E00F94A0AA55
:1041400020E030EC4FE756E40F9415B120E030E06A
:1041500040EA50E40F94F3A39F938F937F936F9360
:104160008FEF97E09F938F930F94A9A90F900F90D3
:104170000F900F900F900F90CD3586E2D80708F47E
:104180005CC081EC9AE70E9432BF0E94C5A80091F2
:10419000A2041091A304B80190E080E00F94A0AABB
:1041A00020E030EC4FE756E40F9415B120E030E00A
:1041B00040EA50E40F94F3A39F938F937F936F9300
:1041C00083ED97E09F938F930F94A9A90F900F9081
:1041D0000F900F900F900F900F32134170F581E008
:1041E000C33DDA4308F080E09091B8108917B1F030
:1041F0008093B8100E9469C39F938F9389EA9BE3D1
:104200009F938F930F94A9A96091B81088E49DE0C3
:104210000F9497AF0F900F900F900F908DE49BE746
:104220000E9432BF0E94C5A81092DE051092A4041D
:10423000DF91CF911F910F91089583E19BE70E9439
:1042400032BF0E94C5A8F2CFCF93DF93809191082F
:10425000811120C060912E068BE0689FB00111246F
:10426000675B724F47E050E083E998E00F9463AFDB
:1042700080919308082E000C990BAA0BBB0B80931E
:10428000B2089093B308A093B408B093B50881E046
:10429000809391088091B2089091B308A091B408DE
:1042A000B091B5088097A105B10564F480E290E073
:1042B000A0E0B0E08093B2089093B308A093B40854
:1042C000B093B5088091B2089091B308A091B4085A
:1042D000B091B50880389105A105B10564F08FE76C
:1042E00090E0A0E0B0E08093B2089093B308A09370
:1042F000B408B093B508E0919208F0E0EF56F74F9C
:104300008091B208828360E080E00E9498B9C3E99E
:10431000D8E089910E942DB988E0CA39D807C9F739
:1043200061E0809192080E9498B98EE50E942DB9B3
:104330000E9499B88823D9F0E09192088E2F90E0DE
:1043400001960797B8F4EF5FE0939208F0E0EF561C
:10435000F74F8281082E000C990BAA0BBB0B8093A0
:10436000B2089093B308A093B408B093B508DF9156
:10437000CF91089560912E068BE0689FB0011124C3
:10438000675B724F47E050E083E998E00F9487AF96
:10439000DF91CF910C9496B88091230291E0811126
:1043A00090E0909323028823A9F01092B302109218
:1043B000230260E087E69FE00F9497AF809124028C
:1043C0008823B1F08091E305811112C080E794E366
:1043D0000C9432B881E00E9448C38091DE058823A6
:1043E00039F08091E305811103C082E394E3F0CFBB
:1043F0000895CF93DF9380E00E94D4C88091CD04CC
:10440000811110C08091CC0481110CC0C091B910F1
:10441000D091BA1087E6C532D80721F088EAC73AAA
:10442000D80721F4DF91CF910C94DCB783E2C63337
:10443000D80779F40E94DCB78AE29DE00F9473AF4D
:1044400061E0811160E08AE29DE0DF91CF910D94FF
:1044500097AF8091D0059091CF05891B8F70E1F4C3
:104460008091CE15811118C080911606811114C05B
:104470008EE8C335D80709F03DC080E090E0A0E8A1
:10448000BFE38093C8049093C904A093CA04B09377
:10449000CB0487EA98EA23C020E030E040E050E413
:1044A0006091A8107091A9108091AA109091AB1002
:1044B0000F949BAA87FF17C08EE8C335D80759F021
:1044C00086E2C537D80739F08CE3C935D80719F02B
:1044D000CF51D94559F40E9433BC85E297E6DF916C
:1044E000CF910C9432B8C355DE4831F1DF91CF91B2
:1044F0000C9496B886E2C537D80709F4BECF88E594
:10450000C23BD80709F4B9CF87E4CB34D80709F404
:10451000B4CF8DE3CD3ED80709F4AFCF88E2C13DDB
:10452000D80709F4AACF89E2C33FD80709F4A5CF79
:10453000CF51D945D9F6A1CFDF91CF91089540E071
:1045400061E083E897E00E940F8A882339F061E0F8
:104550008FE797E00E949CC40E942B5E81E00E943E
:104560008DC882E08093AA02089561E08AE197E015
:104570000E949CC40C942B5E61E08EE197E00E9447
:104580009CC40C942B5E61E086E197E00E949CC481
:104590000C942B5E61E084E297E00E949CC40C9432
:1045A0002B5E80911902882331F0813041F4109202
:1045B00019020C946DC782E080931902FACF81E052
:1045C000FBCFCF93DF938091E3058823D1F08EEC6E
:1045D0009EE00F9473AF813089F48FEC9CE70E94CA
:1045E00032BFEC0189EB95E70E9432BF22E048EA36
:1045F00052E5BE01DF91CF910C944CC184ED9CE754
:10460000EECFDF91CF910895CF93DF938091E305B3
:10461000882349F18091B302811111C08BE999E798
:104620000E9432BFEC0183ED91E90E9432BF22E08B
:1046300050E040E0BE01DF91CF910C944CC18091DD
:104640000205882369F08FEC9CE70E9432BFEC01E1
:1046500083ED91E90E9432BF22E04AE85FE1EACFB0
:1046600084ED9CE7F2CFDF91CF910895CF92DF9256
:10467000EF92FF920F931F93CF93DF938091910856
:10468000882321F08091AA02882361F081E0809341
:1046900091088AE29DE00F9473AF8F3F09F49AC0AE
:1046A000809392080E9479B71092B108C0E3DEE2CD
:1046B0008AE0C82ED12CE12CF12C8091B1088430F5
:1046C00008F0B4C01092B80880912F06882309F42E
:1046D00089C086E19AE70E9432BF0E940DBB81111A
:1046E000A5C08BE997E70E9432BF66E375E30E949D
:1046F0003CBB81119BC0809115028C3309F475C0BD
:10470000803509F477C0893109F079C060E070E044
:1047100080E89EE320E030E048EC52E40F94F3A3FD
:104720000F9487B19B0177FF04C022273327261BF4
:10473000370BB901330F880B990BC0937804D093D2
:104740007904A70196010F941BB5162FCA01B90170
:10475000A70196010F941BB5605D60937A04105D0C
:1047600010937B0410927C0483EE95E70E9432BF85
:1047700020E04AE250E268E774E00E944CC18111F7
:1047800055C08AED95E70E9432BF64E975E20E9448
:104790003CBB81114BC08091DC058823A9F181309D
:1047A00009F44DC01092DC058091E305882309F4DB
:1047B00049C08091920881114FC00E9437B7809103
:1047C000B1088F5F8093B1088091B7088F5F8093A5
:1047D000B70873CF1092920860E08AE29DE00F94D0
:1047E00097AF60CF8AED9CE776CF6AE979E989E1F6
:1047F0009FE390CF6DEC7CEC8CE49FE38BCF6DEC72
:104800007CEC8CEC9EE386CF84E599E70E9432BF76
:104810008C0188E499E70E9432BF22E044E35FE123
:10482000B8010E944CC1882309F4BECFDF91CF911B
:104830001F910F91FF90EF90DF90CF90089580E44B
:1048400099E7E4CF6CE770E287E497E00E94D8BA7A
:10485000882309F4AECFEACF66E374E28AE397E0F7
:104860000E943CBB882309F4A8CFE0CF0E9479B70F
:104870001092B1088091B108843008F049C01092BC
:10488000B8088AED9CE70E9432BF0E940DBB8111DF
:104890003FC08091B80581FF35C084ED9CE70E9440
:1048A00032BF22E04CEC51E5BC018FED92E90E9451
:1048B0004CC181112DC00E94941F882331F18FECCF
:1048C0009CE70E9432BF22E048E550E2BC0183ED44
:1048D00092E90E944CC181111BC061E27FE180EC32
:1048E00092E90E94D8BA811113C00E9437B7809113
:1048F000B1088F5F8093B1088091B7088F5F809374
:10490000B708B8CF8FEC9CE7CACF84ED9CE7D9CF2E
:104910000895CF92DF92EF92FF920F931F93CF9360
:10492000DF9300D01F92CDB7DEB78CEA9DE00F94E5
:1049300073AFD82E8BEA9DE00F9473AFF82E0E94D0
:1049400079B71092B10880E3E82EEF0C98E7C92EF2
:104950008091B108843008F057C01092B80886E101
:104960009AE70E9432BF0E940DBB81114DC0E982BF
:10497000CA82EB821C828FEA99E70E9432BF20E054
:1049800044EA5FE1BE016F5F7F4F0E944CC181111D
:104990003BC080912502805D89831A8281EA99E774
:1049A0000E9432BF20E040EB5FE1BE016F5F7F4FAE
:1049B0000E944CC1811128C087E0F81222C08FEC00
:1049C0009CE7D11002C084ED9CE70E9432BF8C01AD
:1049D0008BE899E70E9432BF22E045EC5FE1B80125
:1049E0000E944CC1811110C00E9437B78091B1085C
:1049F0008F5F8093B1088091B7088F5F8093B7086D
:104A0000A7CF8BE999E7E1CF0F900F900F900F9010
:104A1000DF91CF911F910F91FF90EF90DF90CF909A
:104A20000895CF930E9479B71092B108CBE080919E
:104A3000B108843008F044C01092B8088BE997E7B9
:104A40000E9432BF0E940DBB81113AC080912E0698
:104A50008C9FC0011124805B924F0F9481AF01960F
:104A600029F58091D004882369F186E797E70E94B1
:104A700032BF64E271E20E943CBB811121C08EE62C
:104A800097E70E9432BF66E878E20E94D8BA8111A7
:104A900017C00E9437B78091B1088F5F8093B1082B
:104AA0008091B7088F5F8093B708C1CF82E997E7FD
:104AB0000E9432BF60E274E30E943CBB882389F20B
:104AC000CF9108958FE797E70E9432BF65E570E3C5
:104AD0000E943CBB882349F2F3CF87E080932E06E7
:104AE0000C94112586E080932E060C94112585E008
:104AF00080932E060C94112584E080932E060C944E
:104B0000112583E080932E060C94112582E080937A
:104B10002E060C94112581E080932E060C9411250D
:104B200010922E060C941125CF93DF930E9479B733
:104B30001092B1088091B108843008F070C01092D2
:104B4000B80888E496E70E9432BF0E940DBB81112D
:104B500066C080913006813009F44FC0823009F47C
:104B60004FC08FEE95E70E9432BFEC018DE09AE7CF
:104B70000E9432BF22E04EE45FE1BE010E944CC1C0
:104B800081114DC08091D9048130E9F18230F1F179
:104B90008FEE95E70E9432BFEC0182EC95E70E9410
:104BA00032BF22E042E65FE1BE010E944CC18111AA
:104BB00036C08091D804813061F1823069F18FEE86
:104BC00095E70E9432BFEC018FED91E90E9432BF60
:104BD00022E046E75FE1BE010E944CC181111FC087
:104BE0000E9437B78091B1088F5F8093B1088091A0
:104BF000B7088F5F8093B7089DCF83ED95E7B3CF5C
:104C00008AEC95E7B0CF83ED95E7C4CF8AEC95E7C2
:104C1000C1CF83ED95E7D5CF8AEC95E7D2CFDF9171
:104C2000CF91089580E090E0A0E8BFE38093C804AE
:104C30009093C904A093CA04B093CB040E9479B79F
:104C40001092B1088091B108843008F03FC01092F2
:104C5000B80886E19AE70E9432BF0E940DBB81111D
:104C600035C08BEC9CE60E9432BF6BEB78EA0E9469
:104C70003CBB81112BC082EC9CE60E9432BF61EBF1
:104C800078EA0E943CBB811121C089EB9CE60E941E
:104C900032BF67EA78EA0E943CBB811117C08EEAF6
:104CA0009CE60E9432BF65EE76EA0E943CBB811111
:104CB0000DC00E9437B78091B1088F5F8093B10813
:104CC0008091B7088F5F8093B708BCCF089580911B
:104CD000B9109091BA1083559E4811F40C9461B9A3
:104CE0006BEC78E081E00C943EB91F93CF93DF9397
:104CF0000E9479B71092B108D1E01BE08091B10811
:104D0000843008F054C01092B8088FEA98E70E94E7
:104D100032BF0E940DBB81114AC08091CE15811116
:104D200024C080911606811120C08091D004863065
:104D3000E1F08091B310882351F08AE699E70E9450
:104D400032BF63E876E40E94D8BA811130C0809106
:104D5000D0059091CF05891B8F7069F18EE898E797
:104D60000E9432BF69E57CE351C020E030E040E0C2
:104D700050E46091A8107091A9108091AA109091B0
:104D8000AB100F949BAA87FFD4CF8091CD048111E3
:104D9000D0CF8091CC048111CCCF8FE998E70E94CD
:104DA00032BF65E277E60E943CBB882311F2DF91B7
:104DB000CF911F9108958091CE158111CFCF809111
:104DC00016068111CBCF809115068111C7CF809136
:104DD0008E04843019F280918B048111BFCF8091B1
:104DE000D004863009F4BACF809188048111B6CFFF
:104DF0008091CD048111B2CF8091CC048111AECFCE
:104E000085E998E70E9432BF62EB78E50E943CBBDF
:104E10008111CDCF8091CC04811117C08091CD0438
:104E2000811113C08091150681110FC08091160663
:104E3000882309F4D6C080E898E70E9432BF64E670
:104E400071E50E94D8BA8111B2CF80911506811107
:104E5000D4C08091CE158111EFC0809116068111CA
:104E6000EBC0809115068111E7C08091CF158111AB
:104E700005C08091D004863009F006C180912919BF
:104E8000882309F4EAC080911506811124C080911D
:104E9000CE15811120C08091160681111CC0809111
:104EA000D0048630C1F08091B310811114C081EA22
:104EB0009DE00F9473AFC82F0E9479C387FD0BC08C
:104EC000C81749F0C102C0011124875B924F0F94AB
:104ED000157381116CCF8091CE15811158C08091CE
:104EE0001606811154C08091D004863009F44FC059
:104EF0008091E305882309F4CCC084E498E70E94FC
:104F000032BF64E871E30E943CBB811150CF83E360
:104F100098E70E9432BF67E272E30E943CBB8111B6
:104F200046CF81E298E70E9432BF65EC70E80E94AC
:104F30003CBB81113CCF80E198E70E9432BF6AEC14
:104F400072E30E943CBB811132CF81E098E70E945E
:104F500032BF6DE673E30E943CBB811128CF86E12E
:104F60009AE70E9432BF6DEE7DE30E943CBB811147
:104F70001ECF8091150681110AC08FED97E70E9420
:104F800032BF6FE379E20E943CBB811110CF809168
:104F90001606882309F49DC085EC97E70E9432BF6E
:104FA00067EB78E50E943CBB811101CF8091E3055E
:104FB0008111A0C08AEA97E70E9432BF6FE179E5CC
:104FC0000E943CBB8111F3CE0E9437B78091B1089B
:104FD0008F5F8093B1088091B7088F5F8093B70887
:104FE0008DCE8091CE15882309F42FCF80E898E7E5
:104FF0000E9432BF62EE7EE524CF8091130681309D
:1050000021F080911306811124CF80911606882308
:1050100061F081E798E70E9432BF6AEF7EE10E946B
:105020003CBB882309F415CFC2CE81E798E70E94E4
:1050300032BF67E976E4F3CF80918E04813009F4C2
:1050400014CF81E39AE70E9432BF6EEB7BE40E94AB
:105050003CBB882309F409CFAACE809116068111A2
:1050600012CF8091D004863009F40DCFD0932D0655
:1050700081E698E70E9432BF6BE477E40E943CBB74
:10508000882309F400CF93CED0932D0684E598E7CA
:10509000F1CF809124028823A9F08091B302882364
:1050A00089F08DEE97E70E9432BF68E97DE50E94A6
:1050B0003CBB81117CCE81E298E70E9432BF6AEC52
:1050C00070E849CF84E498E70E9432BF60EC70E852
:1050D000EECF8091D004863009F45ECF82ED97E761
:1050E0000E9432BF60E27BE60E943CBB882309F449
:1050F00053CF5DCE84EB97E70E9432BF6BEE78E52D
:105100000E943CBB882309F455CF51CE1F93CF9307
:10511000DF9300D000D01F921F92CDB7DEB7BE0143
:105120006F5F7F4F80912E060E94A2C380912E0652
:105130001BE0819FC00111246FEF7FEF805B924FD6
:105140000F94B5AF60912E06619FB0011124675B8B
:10515000724F47E050E0CE0101960F9487AF81EA8D
:105160009DE00F9473AF90912E0689130EC00E949C
:1051700094C380E00E9479C38F3F39F40F94D20624
:10518000813019F486EE0F94CD060E9496B82896C9
:105190000FB6F894DEBF0FBECDBFDF91CF911F9148
:1051A00008950E9479B71092B1088091B1088430B7
:1051B00008F041C01092B80886E19AE70E9432BF19
:1051C0000E940DBB811137C08DE09AE70E9432BF6B
:1051D00027E231E050E040E06FEB74E10E9427BA33
:1051E000811129C087E09AE70E9432BF2AE730E0A8
:1051F00050E040E06BEB70E10E9427BA81111BC0C8
:105200008BEF99E70E9432BF2FEF30E050E040E093
:1052100069EB78E00E9427BA81110DC00E9437B770
:105220008091B1088F5F8093B1088091B7088F5F3C
:105230008093B708BACF0895CF93DF931F92CDB76D
:10524000DEB7BE016F5F7F4F89E09FE00F943E7431
:105250008981882321F0813081F0198202C081E0A8
:105260008983698189E09FE00F9497AF81E0809303
:105270001D160F90DF91CF91089582E0F1CF0E942B
:1052800079B71092B1088091B108843008F0AAC0B3
:105290001092B8088DE79AE70E9432BF0E940DBBBA
:1052A0008111A0C080911506882369F00E9437B74C
:1052B0008091B1088F5F8093B1088091B7088F5FAC
:1052C0008093B708E0CF8EE197E70E9432BF6BEE84
:1052D0007FE40E94D8BA811185C08091D0048823D0
:1052E00059F08EE491E90E9432BF63E777E00E94B3
:1052F0005CC5882361F008958FE797E70E9432BF6D
:1053000065E87FE20E943CBB882359F3089582E15F
:1053100097E70E9432BF6CEE7EE20E94D8BA8111FC
:1053200061C087E097E70E9432BF6CE175E40E949C
:10533000D8BA811157C087EF96E70E9432BF65EB5C
:1053400072E20E94D8BA81114DC089EE96E70E94A0
:1053500032BF6CEB72E20E943CBB811143C085ED11
:1053600096E70E9432BF63EC72E20E943CBB81115F
:1053700039C081EC96E70E9432BF6BED71E50E9467
:105380003CBB81112FC08FEA96E70E9432BF6DE3CC
:105390007EE50E943CBB811125C08BE996E70E9407
:1053A00032BF6FE677E00E945CC581111BC020E030
:1053B00030E040E251E4609180047091810480917A
:1053C0008204909183040F947BB287FD6FCF8EE8A7
:1053D00096E70E9432BF6AEC72E20E94D8BA882334
:1053E00009F464CF08950F93CF93DF9381E00E9477
:1053F0008DC80E9433BC01E021E040E050E0BA01DA
:1054000089E396E30E94E5B71092981582E08093B5
:10541000AA02C091B910D091BA100E94ABBDC35579
:10542000DE4889F0811111C062E370E080E090E015
:105430000E94F26680E00E94CAB70E94838481E0E5
:105440000E9446E6E6CF882329F0DF91CF910F91A5
:105450000C942B5E80E0DF91CF910F910C94BABE3B
:10546000AF92BF92CF92DF92EF92FF920F931F9372
:10547000CF93DF93D82FC62F6A0179015801682F87
:105480008C2F0E9498B9C7010F9457A8182F81E05C
:10549000C816D10489F082E0C816D10441F1C701D1
:1054A000DF91CF911F910F91FF90EF90DF90CF9000
:1054B000BF90AF900C9429B9C7010E9429B9C10FC0
:1054C0004AE36D2F8C2F0E94ACBB6D2F81E08C0FB7
:1054D0000E9498B9C501DF91CF911F910F91FF9064
:1054E000EF90DF90CF90BF90AF900C9485BDC70137
:1054F0000E9429B9C10F4AE36D2F8C2F0E94ACBBCB
:1055000048EC58E06D2F81E08C0FDF91CF911F9117
:105510000F91FF90EF90DF90CF90BF90AF900C94E1
:10552000A0BB8F929F92AF92BF92CF92DF92EF92E9
:10553000FF920F931F93CF93DF93C82F6B015A01F4
:10554000D22F480180E00E948DC84AE5E42E43E056
:10555000F42ECA14DB0424F038E5E32E33E0F32EF6
:10556000D1110E9433BC60E080E00E9498B9C11163
:105570001DC081E79BE80E9432BF0E9429B988EFD5
:105580008C0F823060F585E59CE70E9432BF0E9457
:1055900029B984E39CE7CC3031F18CE79BE8CD302E
:1055A00011F1CE3021F581E29CE71DC0C13009F335
:1055B000C230F9F28CEA9CE7C330E9F28AE99CE751
:1055C000C430C9F288E89CE7C530A9F286E79CE7B9
:1055D000C63089F2C73099F687E69CE7CCCFCA304F
:1055E00099F582E49CE70E9432BF0E9429B943EBFF
:1055F00058E061E080E00E94A0BBC33048F581E143
:105600009CE70E9432BFAC0162E080E00E94A0BB38
:1056100062E082E10E9498B9C701CC2311F08CE5C9
:1056200093E00E9485BD84E09CE70E9432BFAC01FC
:1056300063E080E00E94A0BB63E082E10E9498B931
:10564000C230E1F0C7011CC0CB3009F0A2CFC9CFF6
:1056500086EF8C0F823090F585EB9BE80E9432BF7D
:10566000AC0162E080E00E94A0BB8AE30E942DB9F9
:1056700062E082E10E9498B9CA3021F38CE593E0A0
:105680000E9485BD8114910419F0C4010E94C5F0E7
:10569000C6010196AA0CBB1C8A159B0514F090E06C
:1056A00080E0DF91CF911F910F91FF90EF90DF90FD
:1056B000CF90BF90AF909F908F900895CA3010F711
:1056C00041E050E0C43031F042E050E0C33011F42A
:1056D00050E040E0870121EB38E062E070E082E0DA
:1056E00090E00E94302A41E050E0C53031F042E0C5
:1056F00050E0C53010F450E040E087012FEA38E078
:1057000068E070E082E090E00E94302A41E050E0E2
:10571000C63031F042E050E0C63010F450E040E0D6
:1057200087012DEA38E06EE070E082E090E00E94B0
:10573000302A41E050E0C73031F042E050E0C7305D
:1057400010F450E040E0870129EA38E070E060E0C2
:1057500083E090E00E94302A41E050E0C83031F010
:1057600042E050E0C83010F450E040E0870122EA07
:1057700038E069E070E083E090E00E94302A82CF58
:105780005F926F927F928F929F92AF92BF92CF92D1
:10579000DF92EF92FF920F931F93CF93DF93582ED8
:1057A0006091AE047091AF048091B0049091B10407
:1057B0000F9487B14B01EB016091E4057091E50511
:1057C0008091E6059091E7050F9487B17B01552004
:1057D00009F4A4C0EB01740124EB822E912C90E01B
:1057E00080E09093C0148093BF1484E690E0511041
:1057F00002C090E080E09093BC108093BB100E94A8
:10580000838481E00E9446E681E08093B202B12C5D
:10581000A12CD12CC12C85E0682E712C8FEFC81AD9
:10582000D80A0E94838481E00E9446E600E911E0E4
:1058300020E042E050E0B50187E0511001C088E06F
:105840000E94912A5C01C601B3010F9407B5892B10
:1058500011F40E943ADAC814D90401F71092C01466
:105860001092BF141092BC101092BB100E9483843F
:10587000B701FF0C880B990B552009F455C0C09057
:10588000E405D090E505E090E605F090E7050F947B
:10589000A2AA9B01AC016091AE047091AF0480910B
:1058A000B0049091B1040F941AB00F9487B16E3187
:1058B00071050CF065C0BE01DD0F880B990B0F94CC
:1058C000A2AA9B01AC01C701B6010F941AB00F94B4
:1058D00087B189E090E0C1E06817790734F469E6A0
:1058E00073E080E00F94F16FC0E00E94838481E058
:1058F0000E9446E682E08093B2028C2FDF91CF9126
:105900001F910F91FF90EF90DF90CF90BF90AF90DD
:105910009F908F907F906F905F9008959CE3892E69
:10592000912C88EC90E05DCFC090AE04D090AF0495
:10593000E090B004F090B1040F94A2AA9B01AC01D6
:105940006091E4057091E5058091E6059091E70589
:105950000F941AB00F9487B1693071058CF4BE01B1
:10596000DD0F880B990B0F94A2AA9B01AC01C70114
:10597000B6010F941AB00F9487B18EE190E0ABCFCF
:1059800069E673E081E0AECFCF93DF9394E0899F27
:10599000E0011124C056DF4E20E030E040E251E447
:1059A000688179818A819B810F941BB06883798398
:1059B0008A839B8360E070E084E392E40E94B2A655
:1059C0000E940E8B89E69FE00F9473AF882319F035
:1059D00081E080932202DF91CF9108952F923F9230
:1059E0004F925F926F927F928F929F92AF92BF92EF
:1059F000CF92DF92EF92FF921F93CF93DF9300D06D
:105A000000D01F92CDB7DEB7182F682E712C812CD5
:105A100020E8922E2CE5A22E23E4B22E813031F024
:105A2000812C912C9FE7A92E93E4B92E109222028B
:105A30000E94BB6381E08093AB0241E060E070E0D4
:105A400080EA90E40E94C7FC0E940E8B81E0012E48
:105A500001C0880F0A94EAF70E94396420E030E020
:105A600040E752E4C501B4010F941BB069837A8307
:105A70008B839C831301220C331C220C331CC10129
:105A800080569F4E9E838D8329813A814B815C8114
:105A9000FC0160817181828193810F941AB0ED8144
:105AA000FE81608371838283938360E070E084E38E
:105AB00092E40E94B2A60E940E8B109314021092E0
:105AC000A6041092A7041092A8041092A9041092A0
:105AD000AA041092AB041092AC041092AD04812F72
